{
  "_format": "hh-sol-artifact-1",
  "contractName": "IndexFund",
  "sourceName": "contracts/indexFund.sol",
  "abi": [
    {
      "inputs": [],
      "stateMutability": "nonpayable",
      "type": "constructor"
    },
    {
      "inputs": [],
      "name": "aavePrice",
      "outputs": [
        {
          "internalType": "int256",
          "name": "",
          "type": "int256"
        }
      ],
      "stateMutability": "view",
      "type": "function"
    },
    {
      "inputs": [],
      "name": "aavePriceAgg",
      "outputs": [
        {
          "internalType": "contract AggregatorV3Interface",
          "name": "",
          "type": "address"
        }
      ],
      "stateMutability": "view",
      "type": "function"
    },
    {
      "inputs": [
        {
          "internalType": "address",
          "name": "user",
          "type": "address"
        }
      ],
      "name": "balanceOf",
      "outputs": [
        {
          "internalType": "uint256",
          "name": "",
          "type": "uint256"
        }
      ],
      "stateMutability": "view",
      "type": "function"
    },
    {
      "inputs": [
        {
          "internalType": "address",
          "name": "",
          "type": "address"
        }
      ],
      "name": "balances",
      "outputs": [
        {
          "internalType": "uint256",
          "name": "",
          "type": "uint256"
        }
      ],
      "stateMutability": "view",
      "type": "function"
    },
    {
      "inputs": [
        {
          "internalType": "uint256",
          "name": "amount",
          "type": "uint256"
        }
      ],
      "name": "buyToken",
      "outputs": [],
      "stateMutability": "payable",
      "type": "function"
    },
    {
      "inputs": [],
      "name": "calculatePricePerToken",
      "outputs": [],
      "stateMutability": "nonpayable",
      "type": "function"
    },
    {
      "inputs": [],
      "name": "compPrice",
      "outputs": [
        {
          "internalType": "int256",
          "name": "",
          "type": "int256"
        }
      ],
      "stateMutability": "view",
      "type": "function"
    },
    {
      "inputs": [],
      "name": "compPriceAgg",
      "outputs": [
        {
          "internalType": "contract AggregatorV3Interface",
          "name": "",
          "type": "address"
        }
      ],
      "stateMutability": "view",
      "type": "function"
    },
    {
      "inputs": [],
      "name": "crvPrice",
      "outputs": [
        {
          "internalType": "int256",
          "name": "",
          "type": "int256"
        }
      ],
      "stateMutability": "view",
      "type": "function"
    },
    {
      "inputs": [],
      "name": "crvPriceAgg",
      "outputs": [
        {
          "internalType": "contract AggregatorV3Interface",
          "name": "",
          "type": "address"
        }
      ],
      "stateMutability": "view",
      "type": "function"
    },
    {
      "inputs": [],
      "name": "defiSimulate",
      "outputs": [],
      "stateMutability": "nonpayable",
      "type": "function"
    },
    {
      "inputs": [],
      "name": "getBalance",
      "outputs": [
        {
          "internalType": "uint256",
          "name": "",
          "type": "uint256"
        }
      ],
      "stateMutability": "view",
      "type": "function"
    },
    {
      "inputs": [],
      "name": "getPriceOfAllCoins",
      "outputs": [],
      "stateMutability": "nonpayable",
      "type": "function"
    },
    {
      "inputs": [],
      "name": "makerPrice",
      "outputs": [
        {
          "internalType": "int256",
          "name": "",
          "type": "int256"
        }
      ],
      "stateMutability": "view",
      "type": "function"
    },
    {
      "inputs": [],
      "name": "makerPriceAgg",
      "outputs": [
        {
          "internalType": "contract AggregatorV3Interface",
          "name": "",
          "type": "address"
        }
      ],
      "stateMutability": "view",
      "type": "function"
    },
    {
      "inputs": [],
      "name": "pricePerToken",
      "outputs": [
        {
          "internalType": "uint256",
          "name": "",
          "type": "uint256"
        }
      ],
      "stateMutability": "view",
      "type": "function"
    },
    {
      "inputs": [],
      "name": "redeemToken",
      "outputs": [],
      "stateMutability": "nonpayable",
      "type": "function"
    },
    {
      "inputs": [],
      "name": "uniPrice",
      "outputs": [
        {
          "internalType": "int256",
          "name": "",
          "type": "int256"
        }
      ],
      "stateMutability": "view",
      "type": "function"
    },
    {
      "inputs": [],
      "name": "uniPriceAgg",
      "outputs": [
        {
          "internalType": "contract AggregatorV3Interface",
          "name": "",
          "type": "address"
        }
      ],
      "stateMutability": "view",
      "type": "function"
    },
    {
      "stateMutability": "payable",
      "type": "receive"
    }
  ],
  "bytecode": "0x6080604052739c917083fdb403ab5adbec26ee294f6ecada2720600160006101000a81548173ffffffffffffffffffffffffffffffffffffffff021916908373ffffffffffffffffffffffffffffffffffffffff16021790555073de9f0894670c4efcacf370426f10c3ad2cdf147e600260006101000a81548173ffffffffffffffffffffffffffffffffffffffff021916908373ffffffffffffffffffffffffffffffffffffffff16021790555073e7c53ffd03eb6cef7d208bc4c13446c76d1e5884600360006101000a81548173ffffffffffffffffffffffffffffffffffffffff021916908373ffffffffffffffffffffffffffffffffffffffff16021790555073aebda2c976cfd1ee1977eac079b4382acb849325600460006101000a81548173ffffffffffffffffffffffffffffffffffffffff021916908373ffffffffffffffffffffffffffffffffffffffff16021790555073ad1d5344aade45f43e596773bcc4c423eabdd034600560006101000a81548173ffffffffffffffffffffffffffffffffffffffff021916908373ffffffffffffffffffffffffffffffffffffffff160217905550348015620001ba57600080fd5b50620001cb620001d160201b60201c565b62000934565b620001e16200027060201b60201c565b6064600a54620001f291906200062f565b61012c6009546200020491906200062f565b600a6008546200021591906200062f565b60016007546200022691906200062f565b6101f46006546200023891906200062f565b62000244919062000756565b62000250919062000756565b6200025c919062000756565b62000268919062000756565b600b81905550565b6000600160009054906101000a900473ffffffffffffffffffffffffffffffffffffffff1673ffffffffffffffffffffffffffffffffffffffff1663feaf968c6040518163ffffffff1660e01b815260040160a06040518083038186803b158015620002db57600080fd5b505afa158015620002f0573d6000803e3d6000fd5b505050506040513d601f19601f82011682018060405250810190620003169190620008ac565b5050509150506000600260009054906101000a900473ffffffffffffffffffffffffffffffffffffffff1673ffffffffffffffffffffffffffffffffffffffff1663feaf968c6040518163ffffffff1660e01b815260040160a06040518083038186803b1580156200038757600080fd5b505afa1580156200039c573d6000803e3d6000fd5b505050506040513d601f19601f82011682018060405250810190620003c29190620008ac565b5050509150506000600360009054906101000a900473ffffffffffffffffffffffffffffffffffffffff1673ffffffffffffffffffffffffffffffffffffffff1663feaf968c6040518163ffffffff1660e01b815260040160a06040518083038186803b1580156200043357600080fd5b505afa15801562000448573d6000803e3d6000fd5b505050506040513d601f19601f820116820180604052508101906200046e9190620008ac565b5050509150506000600460009054906101000a900473ffffffffffffffffffffffffffffffffffffffff1673ffffffffffffffffffffffffffffffffffffffff1663feaf968c6040518163ffffffff1660e01b815260040160a06040518083038186803b158015620004df57600080fd5b505afa158015620004f4573d6000803e3d6000fd5b505050506040513d601f19601f820116820180604052508101906200051a9190620008ac565b5050509150506000600560009054906101000a900473ffffffffffffffffffffffffffffffffffffffff1673ffffffffffffffffffffffffffffffffffffffff1663feaf968c6040518163ffffffff1660e01b815260040160a06040518083038186803b1580156200058b57600080fd5b505afa158015620005a0573d6000803e3d6000fd5b505050506040513d601f19601f82011682018060405250810190620005c69190620008ac565b5050509150508460068190555083600781905550826008819055508160098190555080600a819055505050505050565b6000819050919050565b7f4e487b7100000000000000000000000000000000000000000000000000000000600052601160045260246000fd5b60006200063c82620005f6565b91506200064983620005f6565b9250827f7fffffffffffffffffffffffffffffffffffffffffffffffffffffffffffffff04821160008413600084131616156200068b576200068a62000600565b5b817f80000000000000000000000000000000000000000000000000000000000000000583126000841260008413161615620006cb57620006ca62000600565b5b827f800000000000000000000000000000000000000000000000000000000000000005821260008413600084121616156200070b576200070a62000600565b5b827f7fffffffffffffffffffffffffffffffffffffffffffffffffffffffffffffff05821260008412600084121616156200074b576200074a62000600565b5b828202905092915050565b60006200076382620005f6565b91506200077083620005f6565b9250817f7fffffffffffffffffffffffffffffffffffffffffffffffffffffffffffffff03831360008312151615620007ae57620007ad62000600565b5b817f8000000000000000000000000000000000000000000000000000000000000000038312600083121615620007e957620007e862000600565b5b828201905092915050565b600080fd5b600069ffffffffffffffffffff82169050919050565b6200081a81620007f9565b81146200082657600080fd5b50565b6000815190506200083a816200080f565b92915050565b6200084b81620005f6565b81146200085757600080fd5b50565b6000815190506200086b8162000840565b92915050565b6000819050919050565b620008868162000871565b81146200089257600080fd5b50565b600081519050620008a6816200087b565b92915050565b600080600080600060a08688031215620008cb57620008ca620007f4565b5b6000620008db8882890162000829565b9550506020620008ee888289016200085a565b9450506040620009018882890162000895565b9350506060620009148882890162000895565b9250506080620009278882890162000829565b9150509295509295909350565b61110480620009446000396000f3fe6080604052600436106101185760003560e01c806370a08231116100a0578063c4a3991511610064578063c4a3991514610357578063d3a03e0c14610382578063d588a49d146103ad578063d89b0779146103d8578063f91b6db0146104035761011f565b806370a082311461028257806372e47e4f146102bf5780637b1b1de6146102d6578063aa5f8e0e14610301578063b3b60b7e1461032c5761011f565b80632f310bad116100e75780632f310bad146101d3578063409e89ce146101ea578063659de28814610201578063683d80091461022c5780636f166b32146102575761011f565b806312065fe01461012457806326b720671461014f57806327e235e31461017a5780632d296bf1146101b75761011f565b3661011f57005b600080fd5b34801561013057600080fd5b5061013961041a565b6040516101469190610b17565b60405180910390f35b34801561015b57600080fd5b50610164610422565b6040516101719190610b4b565b60405180910390f35b34801561018657600080fd5b506101a1600480360381019061019c9190610bc9565b610428565b6040516101ae9190610b17565b60405180910390f35b6101d160048036038101906101cc9190610c22565b610440565b005b3480156101df57600080fd5b506101e86104e8565b005b3480156101f657600080fd5b506101ff6105cc565b005b34801561020d57600080fd5b50610216610651565b6040516102239190610cae565b60405180910390f35b34801561023857600080fd5b50610241610677565b60405161024e9190610b4b565b60405180910390f35b34801561026357600080fd5b5061026c61067d565b6040516102799190610b4b565b60405180910390f35b34801561028e57600080fd5b506102a960048036038101906102a49190610bc9565b610683565b6040516102b69190610b17565b60405180910390f35b3480156102cb57600080fd5b506102d46106cb565b005b3480156102e257600080fd5b506102eb610a3d565b6040516102f89190610b17565b60405180910390f35b34801561030d57600080fd5b50610316610a43565b6040516103239190610cae565b60405180910390f35b34801561033857600080fd5b50610341610a69565b60405161034e9190610b4b565b60405180910390f35b34801561036357600080fd5b5061036c610a6f565b6040516103799190610cae565b60405180910390f35b34801561038e57600080fd5b50610397610a95565b6040516103a49190610cae565b60405180910390f35b3480156103b957600080fd5b506103c2610abb565b6040516103cf9190610cae565b60405180910390f35b3480156103e457600080fd5b506103ed610ae1565b6040516103fa9190610b4b565b60405180910390f35b34801561040f57600080fd5b50610418610ae7565b005b600047905090565b600a5481565b60006020528060005260406000206000915090505481565b600b548161044e9190610cf8565b341015610490576040517f08c379a000000000000000000000000000000000000000000000000000000000815260040161048790610daf565b60405180910390fd5b806000803373ffffffffffffffffffffffffffffffffffffffff1673ffffffffffffffffffffffffffffffffffffffff16815260200190815260200160002060008282546104de9190610dcf565b9250508190555050565b60008060003373ffffffffffffffffffffffffffffffffffffffff1673ffffffffffffffffffffffffffffffffffffffff1681526020019081526020016000205490506000600b548261053b9190610cf8565b905060008060003373ffffffffffffffffffffffffffffffffffffffff1673ffffffffffffffffffffffffffffffffffffffff168152602001908152602001600020819055503373ffffffffffffffffffffffffffffffffffffffff166108fc829081150290604051600060405180830381858888f193505050501580156105c7573d6000803e3d6000fd5b505050565b6105d46106cb565b6064600a546105e39190610e25565b61012c6009546105f39190610e25565b600a6008546106029190610e25565b60016007546106119190610e25565b6101f46006546106219190610e25565b61062b9190610f3c565b6106359190610f3c565b61063f9190610f3c565b6106499190610f3c565b600b81905550565b600560009054906101000a900473ffffffffffffffffffffffffffffffffffffffff1681565b60065481565b60095481565b60008060008373ffffffffffffffffffffffffffffffffffffffff1673ffffffffffffffffffffffffffffffffffffffff168152602001908152602001600020549050919050565b6000600160009054906101000a900473ffffffffffffffffffffffffffffffffffffffff1673ffffffffffffffffffffffffffffffffffffffff1663feaf968c6040518163ffffffff1660e01b815260040160a06040518083038186803b15801561073557600080fd5b505afa158015610749573d6000803e3d6000fd5b505050506040513d601f19601f8201168201806040525081019061076d9190611053565b5050509150506000600260009054906101000a900473ffffffffffffffffffffffffffffffffffffffff1673ffffffffffffffffffffffffffffffffffffffff1663feaf968c6040518163ffffffff1660e01b815260040160a06040518083038186803b1580156107dd57600080fd5b505afa1580156107f1573d6000803e3d6000fd5b505050506040513d601f19601f820116820180604052508101906108159190611053565b5050509150506000600360009054906101000a900473ffffffffffffffffffffffffffffffffffffffff1673ffffffffffffffffffffffffffffffffffffffff1663feaf968c6040518163ffffffff1660e01b815260040160a06040518083038186803b15801561088557600080fd5b505afa158015610899573d6000803e3d6000fd5b505050506040513d601f19601f820116820180604052508101906108bd9190611053565b5050509150506000600460009054906101000a900473ffffffffffffffffffffffffffffffffffffffff1673ffffffffffffffffffffffffffffffffffffffff1663feaf968c6040518163ffffffff1660e01b815260040160a06040518083038186803b15801561092d57600080fd5b505afa158015610941573d6000803e3d6000fd5b505050506040513d601f19601f820116820180604052508101906109659190611053565b5050509150506000600560009054906101000a900473ffffffffffffffffffffffffffffffffffffffff1673ffffffffffffffffffffffffffffffffffffffff1663feaf968c6040518163ffffffff1660e01b815260040160a06040518083038186803b1580156109d557600080fd5b505afa1580156109e9573d6000803e3d6000fd5b505050506040513d601f19601f82011682018060405250810190610a0d9190611053565b5050509150508460068190555083600781905550826008819055508160098190555080600a819055505050505050565b600b5481565b600160009054906101000a900473ffffffffffffffffffffffffffffffffffffffff1681565b60085481565b600260009054906101000a900473ffffffffffffffffffffffffffffffffffffffff1681565b600360009054906101000a900473ffffffffffffffffffffffffffffffffffffffff1681565b600460009054906101000a900473ffffffffffffffffffffffffffffffffffffffff1681565b60075481565b6002600b54610af69190610cf8565b600b81905550565b6000819050919050565b610b1181610afe565b82525050565b6000602082019050610b2c6000830184610b08565b92915050565b6000819050919050565b610b4581610b32565b82525050565b6000602082019050610b606000830184610b3c565b92915050565b600080fd5b600073ffffffffffffffffffffffffffffffffffffffff82169050919050565b6000610b9682610b6b565b9050919050565b610ba681610b8b565b8114610bb157600080fd5b50565b600081359050610bc381610b9d565b92915050565b600060208284031215610bdf57610bde610b66565b5b6000610bed84828501610bb4565b91505092915050565b610bff81610afe565b8114610c0a57600080fd5b50565b600081359050610c1c81610bf6565b92915050565b600060208284031215610c3857610c37610b66565b5b6000610c4684828501610c0d565b91505092915050565b6000819050919050565b6000610c74610c6f610c6a84610b6b565b610c4f565b610b6b565b9050919050565b6000610c8682610c59565b9050919050565b6000610c9882610c7b565b9050919050565b610ca881610c8d565b82525050565b6000602082019050610cc36000830184610c9f565b92915050565b7f4e487b7100000000000000000000000000000000000000000000000000000000600052601160045260246000fd5b6000610d0382610afe565b9150610d0e83610afe565b9250817fffffffffffffffffffffffffffffffffffffffffffffffffffffffffffffffff0483118215151615610d4757610d46610cc9565b5b828202905092915050565b600082825260208201905092915050565b7f6e6f7420656e6f7567682062726f000000000000000000000000000000000000600082015250565b6000610d99600e83610d52565b9150610da482610d63565b602082019050919050565b60006020820190508181036000830152610dc881610d8c565b9050919050565b6000610dda82610afe565b9150610de583610afe565b9250827fffffffffffffffffffffffffffffffffffffffffffffffffffffffffffffffff03821115610e1a57610e19610cc9565b5b828201905092915050565b6000610e3082610b32565b9150610e3b83610b32565b9250827f7fffffffffffffffffffffffffffffffffffffffffffffffffffffffffffffff0482116000841360008413161615610e7a57610e79610cc9565b5b817f80000000000000000000000000000000000000000000000000000000000000000583126000841260008413161615610eb757610eb6610cc9565b5b827f80000000000000000000000000000000000000000000000000000000000000000582126000841360008412161615610ef457610ef3610cc9565b5b827f7fffffffffffffffffffffffffffffffffffffffffffffffffffffffffffffff0582126000841260008412161615610f3157610f30610cc9565b5b828202905092915050565b6000610f4782610b32565b9150610f5283610b32565b9250817f7fffffffffffffffffffffffffffffffffffffffffffffffffffffffffffffff03831360008312151615610f8d57610f8c610cc9565b5b817f8000000000000000000000000000000000000000000000000000000000000000038312600083121615610fc557610fc4610cc9565b5b828201905092915050565b600069ffffffffffffffffffff82169050919050565b610fef81610fd0565b8114610ffa57600080fd5b50565b60008151905061100c81610fe6565b92915050565b61101b81610b32565b811461102657600080fd5b50565b60008151905061103881611012565b92915050565b60008151905061104d81610bf6565b92915050565b600080600080600060a0868803121561106f5761106e610b66565b5b600061107d88828901610ffd565b955050602061108e88828901611029565b945050604061109f8882890161103e565b93505060606110b08882890161103e565b92505060806110c188828901610ffd565b915050929550929590935056fea2646970667358221220fcbbb736e18332c2b6b3a42bb5f3e34626e4bf5440c67feb971c189415cf414464736f6c63430008090033",
  "linkReferences": {},
  "deployedLinkReferences": {}
}